:100000000C945D000C9458060C9431060C948500F9
:100010000C9485000C9485000C947F060C9485004C
:100020000C9485000C9485000C9485000C9485003C
:100030000C9485000C9485000C9485000C9485002C
:100040000C94E7050C9485000C9485000C948500B5
:100050000C9485000C9485000C9485000C9485000C
:100060000C9485000C9485000000000024002700FB
:100070002A0000000000250028002B0004040404CE
:100080000404040402020202020203030303030342
:10009000010204081020408001020408102001021F
:1000A00004081020000000080002010000030407FB
:1000B0000000000000000000A20811241FBECFEFC6
:1000C000D8E0DEBFCDBF11E0A0E0B1E0E4E7F2E1AF
:1000D00002C005900D92A632B107D9F721E0A6E241
:1000E000B1E001C01D92AE36B207E1F710E0CDE5F8
:1000F000D0E004C02197FE010E942D09CC35D10724
:10010000C9F70E9496060C9438090C940000E0EBA5
:10011000F0E02491ECE9F0E09491E8E8F0E0E4917B
:10012000EE23C9F0222339F0233001F1A8F4213065
:1001300019F1223029F1F0E0EE0FFF1FEE58FF4FCA
:10014000A591B4912FB7F894EC91811126C09095A8
:100150009E239C932FBF08952730A9F02830C9F023
:10016000243049F7209180002F7D03C0209180002A
:100170002F7720938000DFCF24B52F7724BDDBCFEE
:1001800024B52F7DFBCF2091B0002F772093B000B6
:10019000D2CF2091B0002F7DF9CF9E2BDACF3FB781
:1001A000F89480914D0190914E01A0914F01B09132
:1001B000500126B5A89B05C02F3F19F00196A11D3F
:1001C000B11D3FBFBA2FA92F982F8827BC01CD01A1
:1001D000620F711D811D911D42E0660F771F881F00
:1001E000991F4A95D1F708954F925F926F927F922F
:1001F0009F92AF92BF92CF92DF92EF92FF920F93B6
:100200001F93CF93DF9300D01F92CDB7DEB7D0906E
:1002100061018091640190916501A0916601B091A6
:100220006701892B8A2B8B2BD9F00E94CF0000917C
:100230005D0110915E0120915F0130916001601BB2
:10024000710B820B930B0091640110916501209159
:100250006601309167016017710782079307C8F242
:100260000E94CF0060935D0170935E0180935F01F7
:1002700090936001E0916C01F0916D01309759F01D
:10028000409168015091690160916A0170916B0120
:100290008D2D0995D82EE0905B01F0905C014D2CDE
:1002A000512C712C612CE114F10409F459C0D701CF
:1002B0001C96CC901C9780916201909163018436CA
:1002C000910510F41C961C92D701ED91FC91A2802F
:1002D000B38019821A821B82DD2079F1F7013696EC
:1002E00010E000E02191222319F19280992001F180
:1002F00030E050E040E02F5F3F4F4F4F5F4FC30172
:10030000B2010E94EE089B01AC01892D90E0B0E0A3
:10031000A0E0BC01CD016F5F7F4F8F4F9F4F0E94C8
:10032000EE08A1E0B0E0AC0FBD1FA00FB11F8C9391
:100330000F5F1F4F03301105A9F609811A812B8128
:10034000F7014585568562817381C701F5010995DD
:10035000D7011C96CC921C971496ED90FC90A3CFDD
:100360008091590190915A019C012F5F3F4F30932A
:100370005A012093590149970CF44AC08FB7F89459
:1003800020915101309152014091530150915401FB
:100390008FBF8091550190915601A0915701B09166
:1003A0005801281B390B4A0B5B0B21F421E030E08C
:1003B00040E050E0E0915901F0915A0188EE93E05D
:1003C000E89FB001E99F700DF89F700D1124072E72
:1003D000000C880B990B0E94BD0830936301209399
:1003E000620110925A01109259012FB7F89480912E
:1003F000510190915201A0915301B09154012FBF2E
:100400008093550190935601A0935701B0935801E2
:100410000F900F900F90DF91CF911F910F91FF9050
:10042000EF90DF90CF90BF90AF909F907F906F90B4
:100430005F904F9008958F929F92AF92BF92CF920C
:10044000DF92EF92FF926B017C010E94CF004B0183
:100450005C01C114D104E104F104B9F00E94CF00A1
:10046000681979098A099B09683E734081059105DD
:1004700080F321E0C21AD108E108F10888EE880E65
:1004800083E0981EA11CB11CE4CFFF90EF90DF9099
:10049000CF90BF90AF909F908F90089581E0809310
:1004A0004301089580E991E00895089541155105AB
:1004B00029F4EAE7F0E080818F7780836A30710564
:1004C000B9F0CB01880F991F880F991F8072677050
:1004D0006860682B88E10FB6F894A8958093600057
:1004E0000FBE60936000E0E6F0E08081806480836E
:1004F000232BD9F483B7817F846083BFF89483B7BB
:10050000816083BF85B7806685BF8F7D85BF789406
:10051000889583B78E7F83BF7894452B29F4EAE7CB
:10052000F0E0808180688083089583B7817F846054
:1005300083BFF89483B7816083BF7894889583B72D
:100540008E7F83BF7894E9CF0F931F93CF93DF9370
:10055000209127012F5F322F37703093270120FF22
:100560002BC020E831FD2064347009F02062205F48
:10057000FC01EC01239600E011E06485662329F07C
:1005800070E0C8010E94FE086F5F6187322F369FBE
:10059000030E30E0311D1124311110C01682662384
:1005A00011F0615061873196EC17FD0731F7DF914B
:1005B000CF911F910F91089520E0D4CF3150368311
:1005C000EECF4F925F926F927F928F92AF92BF92D7
:1005D000CF92DF92EF920F931F93CF93DF933C0163
:1005E000EB010E94CF00F30127853089621B730B5A
:1005F0006A307105B0F3F894E881F98175B17860DB
:1006000065B1677F65B9CA848F812C2D281B822F25
:100610002F83BF844A805B801D850C85DE841F5F2D
:100620000F5FD3949E813885A984EB844181D201E8
:1006300020E0C32F522F322F31814427889431116B
:10064000380F08F43FEF8195889410FD430F4795CC
:10065000889411FD430F4795889412FD430F4795E9
:10066000889413FD430F4795889414FD430F4795D5
:10067000889415FD430F4795889416FD430F4795C1
:10068000889417FD430F47958894232F1111242F29
:100690008C0D422F002C75B900C047FF65B9308121
:1006A0002227889400C000C0002C65B93111390F91
:1006B00000C0002C75B900C046FF65B908F43FEFD3
:1006C0009195889400C000C0002C65B900FD230FEF
:1006D00000C0002C75B900C045FF65B92795889406
:1006E00001FD230F00C000C0002C65B92795889438
:1006F00000C0002C75B900C044FF65B902FD230F8E
:100700002795889400C000C0002C65B903FD230F15
:1007100000C0002C75B900C043FF65B927958894C7
:1007200004FD230F00C000C0002C65B927958894F4
:1007300000C0002C75B900C042FF65B905FD230F4C
:100740002795889400C000C0002C65B906FD230FD2
:1007500000C0002C75B900C041FF65B92795889489
:1007600007FD230F00C000C0002C65B927958894B1
:1007700000C0002C75B900C040FF65B9432F0111BE
:10078000422F9A0D00C000C0002C65B900C000C007
:10079000002C75B900C047FF65B9328122278894C3
:1007A00000C000C0002C65B931113C0F00C0002C06
:1007B00075B900C046FF65B908F43FEFEB0DF11DB8
:1007C00000C000C0002C65B9D0FC230F00C0002C75
:1007D00075B900C045FF65B927958894D1FC230FF2
:1007E00000C000C0002C65B92795889400C0002C7B
:1007F00075B900C044FF65B9D2FC230F27958894D2
:1008000000C000C0002C65B9D3FC230F00C0002C31
:1008100075B900C043FF65B927958894D4FC230FB0
:1008200000C000C0002C65B92795889400C0002C3A
:1008300075B900C042FF65B9D5FC230F2795889490
:1008400000C000C0002C65B9D6FC230F00C0002CEE
:1008500075B900C041FF65B927958894D7FC230F6F
:1008600000C000C0002C65B92795889400C0002CFA
:1008700075B900C040FF65B9432FD110422FC19513
:1008800000C000C0002C65B9CE0D00C000C075B915
:1008900000C047FF65B931812227889400C000C09D
:1008A000002C65B93111380F00C0002C75B900C09B
:1008B00046FF65B908F43FEF8195889400C000C0F9
:1008C000002C65B910FD230F00C0002C75B900C0C5
:1008D00045FF65B92795889411FD230F00C000C01E
:1008E000002C65B92795889400C0002C75B900C00C
:1008F00044FF65B912FD230F2795889400C000C0FE
:10090000002C65B913FD230F00C0002C75B900C081
:1009100043FF65B92795889414FD230F00C000C0DC
:10092000002C65B92795889400C0002C75B900C0CB
:1009300042FF65B915FD230F2795889400C000C0BC
:10094000002C65B916FD230F00C0002C75B900C03E
:1009500041FF65B92795889417FD230F00C000C09B
:10096000002C65B92795889400C0002C75B900C08B
:1009700040FF65B9432F1111422F8C0D00C000C0FC
:10098000002C65B9119709F086CE20EE31E0D20136
:100990000E941209DC01CB01F4E0B695A79597956A
:1009A0008795FA95D1F730E020E0B901EAE94E9E4B
:1009B000040C611D5E9E600D711D1124650D711D7D
:1009C000860F971FA11DB11D893E43E09407A10525
:1009D000B10508F434C0885E9340A109B10942E032
:1009E000B695A795979587954A95D1F747E0849F47
:1009F000080E211D949F200D311D1124290F311D3A
:100A00006091260170E0860F971F820F931F40911F
:100A10005101509152016091530170915401292F5D
:100A20003327420F531F611D711D40935101509395
:100A3000520160935301709354018093260178947E
:100A40000E94CF00F301708B6787DF91CF911F91D8
:100A50000F91EF90DF90CF90BF90AF908F907F90ED
:100A60006F905F904F900895239A0895EF92FF92B0
:100A70000F931F93CF93DF93CDB7DEB762970FB677
:100A8000F894DEBF0FBECDBF7C01DC011C968C91BB
:100A90007A8369835C834B835E834D830D871E87D6
:100AA0002F87813001F5CE0101960E94A40283E0D8
:100AB000888B1A8A198AD701ED91FC910484F585F7
:100AC000E02DBE016F5F7F4FC701099562960FB69B
:100AD000F894DEBF0FBECDBFDF91CF911F910F9174
:100AE000FF90EF9008951C861B861A86198618863B
:100AF0001F82DDCFEF92FF920F931F93CF93DF936F
:100B0000CDB7DEB762970FB6F894DEBF0FBECDBF8C
:100B10007C01DC011C968C917A8369835C834B8316
:100B20005E834D830D871E872F878130F9F4CE01B8
:100B300001960E94A402188A1A8A198AD701ED9197
:100B4000FC910484F585E02DBE016F5F7F4FC701E6
:100B5000099562960FB6F894DEBF0FBECDBFDF9148
:100B6000CF911F910F91FF90EF9008951C861B86E7
:100B70001A86198618861F82DECF90E080E00895DD
:100B8000FC018585968508950F931F93CF93DF937E
:100B900000D01F92CDB7DEB7AB0119821A821B823B
:100BA000DC01ED91FC910190F081E02D00E010E07E
:100BB00020E0BE016F5F7F4F09950F900F900F905F
:100BC000DF91CF911F910F9108950E9433091F92D9
:100BD0000F920FB60F9211242F933F938F939F93F1
:100BE000AF93BF938091510190915201A091530115
:100BF000B091540130914C0123E0230F2D3758F56B
:100C00000196A11DB11D20934C0180935101909339
:100C10005201A0935301B093540180914D019091E2
:100C20004E01A0914F01B09150010196A11DB11D3F
:100C300080934D0190934E01A0934F01B0935001CA
:100C4000BF91AF919F918F913F912F910F900FBEC8
:100C50000F901F90189526E8230F0296A11DB11D35
:100C6000D2CF1F920F920FB60F9211242F933F9362
:100C70004F935F936F937F938F939F93AF93BF93A4
:100C8000EF93FF93E0910201F09103010995FF9129
:100C9000EF91BF91AF919F918F917F916F915F91F4
:100CA0004F913F912F910F900FBE0F901F9018956D
:100CB0001F920F920FB60F9211242F933F934F93D1
:100CC0005F936F937F938F939F93AF93BF93EF93B4
:100CD000FF93E0910001F09101010995FF91EF91DF
:100CE000BF91AF919F918F917F916F915F914F9144
:100CF0003F912F910F900FBE0F901F9018951F924C
:100D00000F920FB60F9211248F930FB6F894A895F7
:100D100080916000886180936000109260000FBE37
:100D20008F910F900FBE0F901F901895789484B5F7
:100D3000826084BD84B5816084BD85B5826085BDD7
:100D400085B5816085BD80916E00816080936E0065
:100D50001092810080918100826080938100809157
:100D60008100816080938100809180008160809308
:100D700080008091B10084608093B1008091B000C8
:100D800081608093B00080917A00846080937A00C3
:100D900080917A00826080937A0080917A008160ED
:100DA00080937A0080917A00806880937A00109214
:100DB000C100E2E9F0E02491EEE7F0E084918823BD
:100DC000C1F090E0880F991FFC01E859FF4FC591D1
:100DD000D491FC01EE58FF4FA591B4919FB7F894C0
:100DE0003881822F809583238883EC91E22BEC93CA
:100DF0009FBFECE9F0E02491E8E8F0E084918823DB
:100E000099F090E0880F991FFC01E859FF4FA591D8
:100E1000B491FC01EE58FF4F859194918FB7F894EF
:100E2000EC91E22BEC938FBF80E00E9487008091D1
:100E30003B01811145C010922D0110922C018FEFC2
:100E4000809330018093310180933201809333018C
:100E5000809334018093350181E0809336011092B4
:100E600038011092370110922F0110922E018091BB
:100E70005B0190915C01892B31F48AE291E09093BF
:100E80005C0180935B01E0912801F091290130978A
:100E900021F08AE291E0958384838AE291E0909345
:100EA00029018093280110923A011092390188E1BA
:100EB00091E090932B0180932A0181E080933B0184
:100EC000239A84E491E090932D0180932C0182E099
:100ED00090E0909338018093370180916401909164
:100EE0006501A0916601B0916701843C29E09207F9
:100EF000A105B10520F484EC99E0A0E0B0E0809376
:100F0000640190936501A0936601B09367018FEF30
:100F1000809361018EE492E090930101809300013F
:100F2000809169008C7F816080936900E89AD7E4A2
:100F300000E010E0CFEFD0937C0080917A008064D5
:100F400080937A0080917A0086FDFCCF80917800B2
:100F500020917900322F282F032E000C440B550BC3
:100F60002256324041095109A4E6B0E00E94B2087D
:100F7000603F71058105910554F430E020E050E0B8
:100F800040E06AE070E08BE491E00E9456028091BC
:100F90004A01882309F4B6C0C09344011092450168
:100FA000109246011092470110924801C0934901E6
:100FB0000E94F40034E0E32EF12C109244011092D0
:100FC0004501109246010E94F40064E670E080E062
:100FD00090E00E941B02C0934401109245011092C0
:100FE00046010E94F40081E0E81AF10831F724E09C
:100FF000E22EF12C10924701109248011092490103
:101000000E94F40064E670E080E090E00E941B0221
:101010001092470110924801C09349010E94F400C8
:1010200021E0E21AF10831F7C0934701109248011C
:10103000109249011092440110924501C09346015B
:101040000E94F40094E0E92EF12C109244011092D9
:101050004501109246010E94F40064E670E080E0D1
:1010600090E00E941B021092440110924501C0932F
:1010700046010E94F40081E0E81AF10831F784E0AB
:10108000E82EF12C1092470110924801109249016C
:101090000E94F40064E670E080E090E00E941B0291
:1010A000C093470110924801109249010E94F40038
:1010B00021E0E21AF10831F764E670E080E090E0A8
:1010C0000E941B02809143018823A9F010924301E2
:1010D00080914A01882379F180E00E948700109274
:1010E0004A0130E020E050E040E06AE070E08BE44C
:1010F00091E00E9456020115110509F41CCF0E94CF
:10110000000019CF1092440110924501109246013F
:101110001092470110924801109249010E94F40078
:1011200030E020E050E040E06AE070E08BE491E0E5
:101130000E945602C7CF81E00E94870081E0809321
:101140004A01D9CFE1E6F1E08FEF8083128211826C
:10115000148613868FEF9FEFDC0187839087A1872A
:10116000B28708950E94DF08A59F900DB49F900D4F
:10117000A49F800D911D11240895A1E21A2EAA1B8F
:10118000BB1BFD010DC0AA1FBB1FEE1FFF1FA21737
:10119000B307E407F50720F0A21BB30BE40BF50B34
:1011A000661F771F881F991F1A9469F760957095BD
:1011B000809590959B01AC01BD01CF010895A29F40
:1011C000B001B39FC001A39F700D811D1124911D1B
:1011D000B29F700D811D1124911D0895DB018F9325
:1011E0009F930E94B208BF91AF91A29F800D911D65
:1011F000A39F900DB29F900D1124089597FB072E89
:1012000016F4009407D077FD09D00E94190907FC55
:1012100005D03EF4909581959F4F08957095619506
:101220007F4F08950E94DF08B7FF0895821B930B3C
:101230000895AA1BBB1B51E107C0AA1FBB1FA6171D
:10124000B70710F0A61BB70B881F991F5A95A9F76F
:1012500080959095BC01CD010895EE0FFF1F05907C
:10126000F491E02D099481E090E0F8940C94380911
:04127000F894FFCF20
:101274005502550200000000E505E505E505C40535
:10128400C005BD05000000007A0536053405C40517
:06129400C0055202E10258
:00000001FF
